:0F0000007580C012003E7580F912003E7580A415
:0F000F0012003E7580B012003E75809912003EBF
:0F001E0075809212003E75808212003E7580F848
:0F002D0012003E75808012003E75809012003EDA
:0E003C0080C275A0C012007B75A0F912007B77
:0F004A0075A0A412007B75A0B012007B75A09961
:0F00590012007B75A09212007B75A08212007BB3
:0F00680075A0F812007B75A08012007B75A09028
:1000770012007B227A0879FF78FFD8FED9FADAF6E0
:010087002256
:00000001FF
