:060000000200160200BD23
:0E0013000200EB75B80475A8857580C07CC02E
:1000210012006C7580F97CF912006C7580A47CA4B7
:1000310012006C7580B07CB012006C7580997C994F
:1000410012006C7580927C9212006C7580827C82A9
:1000510012006C7580F87CF812006C7580807C80D1
:1000610012006C7580907C9012006C75A0C07DC0F0
:1000710012011D75A0F97DF912011D75A0A47DA4C1
:1000810012011D75A0B07DB012011D75A0997D9959
:1000910012011D75A0927D9212011D75A0827D82B3
:1000A10012011D75A0F87DF812011D75A0807D80DB
:1000B10012011D75A0907D9012011D22ECFE8DF0A4
:0E00C100AFF074057580FF75A0FF7CFF7DFF1A
:1000CF0012013075800075A0007C007D0012013098
:0F00DF00D5E0E3EEFC8C80EFFD8FA032758088BA
:0F00EE0075A08812011D75808375A08312011DF6
:0F00FD007580C675A0C612011D7580A175A0A1E2
:10010C0012011D75808675A08612011D8C808DA034
:0F011C00327A0879FF78FFD8FED9FADAF67A023C
:0F012B0079FF78FF227A0479FF78FFD8FED9FA9E
:09013A00DAF67A0279FF78FF225F
:00000001FF
